:020000040800F2
:10000000581900204D010008792D0008E928000842
:1000100000000000000000000000000000000000E0
:100020000000000000000000000000001530000883
:1000300000000000000000000B010008253100084E
:100040005F010008000000005F0100085F01000878
:100050005F0100085F0100085F0100083F0400081D
:10006000000000005F0100085F0100085F01000858
:100070005F0100085F0100085F0100080000000048
:100080005F0100080000000000000000B931000816
:10009000000000005F0100085F0100085F01000828
:1000A0005F0100085F0100085F01000825390008B2
:1000B0005F010008000000000000000000000000D8
:1000C0000348854600F0C2F800480047594100083F
:1000D00058190020084B19680868203080F30988F7
:1000E000022080F31488BFF36F8F3FBCAE4608BC7C
:1000F00004BC62B61847000088000020EFF31080AF
:1001000072B6704780F310887047EFF309800E4B8A
:100110001A6820381060F0C044464D4656465F4687
:10012000F0C008B572B604F0BFFF62B60CBC11682F
:1001300008681030F0C8A046A946B246BB4680F316
:1001400009882038F0C818478800002004488047F4
:1001500004480047FEE7FEE7FEE7FEE7FEE7FEE7AE
:10016000B7310008C100000830B50B460146002039
:100170002022012409E00D46D5409D4205D31D46AD
:100180009540491B2546954040191546521E002DA5
:10019000F1DC30BD03460B439B0703D009E008C9DF
:1001A000121F08C0042AFAD203E00B780370401C27
:1001B000491C521EF9D27047D2B201E00270401CB5
:1001C000491EFBD270470022F6E710B513460A46D7
:1001D00004461946FFF7F0FF204610BD421C017887
:1001E000401C0029FBD1801A7047F0B51FB40646A9
:1001F000002082B005464024019100901BE0019947
:1002000022460F46304600F043F8049A059B801AB8
:10021000994110D310461946224600F029F8361AA3
:100220008F410197224601200021009F00F020F815
:1002300038184D4100902046641E0028DFDC019BE9
:1002400000982946324607B0F0BD0000064C012553
:10025000064E05E0E36807CC2B430C3C984710346E
:10026000B442F7D3FFF730FF906B0008B06B000883
:1002700010B5202A04DB0146203A9140002010BD31
:10028000914020239C1A0346E3401943904010BD3F
:1002900010B5202A04DB0846203AD040002110BDCA
:1002A0000B46D340D0402024A21A9140084319465F
:1002B00010BD000070B50446006802F01EFB002867
:1002C00024D0206881688907C90F04D18168104A49
:1002D00011401031816000F0C5FD054612E000F0CC
:1002E000C1FD401B02280DD920688068400709D550
:1002F000A06D10210843A065E06D01210843E06571
:10030000084670BD206880684007E8D4002070BDB2
:10031000E8FFFF7FF8B50446006881688907CD0FC4
:1003200002F0E3FA00282AD0002D28D12068816845
:100330000522114010250126012914D18168114A96
:100340001140891C816021680320086000F08AFD4B
:10035000074610E000F086FDC01B02280BD920687C
:100360008068C00707D0A06D2843A065E06D3043CA
:10037000E0650120F8BD20688068C007EAD1002050
:10038000F8BD0000E8FFFF7FF8B5044600200090AC
:10039000206802F0AAFA002845D120688168234A23
:1003A00010261140002930D18168D5432940491CCD
:1003B00081601F48006807218905084000020AD5AE
:1003C0001D481C490068FFF7CFFE401C00E0401E9E
:1003D00000900028FBD1607E012824D000F042FD6F
:1003E00007461BE002F081FA002804D120688168EA
:1003F0002940491C816000F035FDC01B02280DD941
:1004000020680068C043C00708D0A06D3043A065D5
:10041000E06D01210843E0650846F8BD20680168E9
:10042000C943C907DED10020F8BD000017000080D5
:1004300008270140400D030084000020704710B5DC
:10044000FF20013000F02EFC10BD72B6FEE7000068
:10045000FEB500270546044640350097287D3E46F8
:1004600001280ED0012028752046FFF753FF029087
:10047000206802F03EFA0028A06D04D01021084345
:100480006FE00220FEBDFF210131884302210843B5
:10049000A0652068C168354A11400191C168D24306
:1004A0001140C16000212068826817239A43DB074E
:1004B0001A4382602E4A20680CE0009B5B1C00936C
:1004C000934207D3A06D0221884310210843A06501
:1004D0002F7536E08368DB0FEFD18030406B491C0D
:1004E0004006400E86190829DDD33046FFF73CFE52
:1004F0000146206883681F4A13405B1C83602068A4
:100500008030436BDB09DB010B4343632068816868
:100510001140891C816000F0A5FC064613E000F044
:10052000A1FC801B02280ED9206802F0E2F9002805
:1005300009D0A06D10210843A065E06D012108439A
:10054000E0650120FEBD206802F0D3F90028E6D165
:100550002068C168019A1143C160A06D80088000C5
:10056000401CA0652F750298FEBD000003800000AE
:1005700000F20200E8FFFF7FF8B5002706460446B8
:1005800040360097307D0D4601280FD00120307590
:10059000206802F0B2F900280AD0A06D202108439B
:1005A000A0650127002030753846F8BD0220F8BD4F
:1005B000686802287ED001222169D207914202D0C8
:1005C000121D914206D120682968826A4903490BAD
:1005D0000A436EE0C206D20E0F20216E9040814386
:1005E0002868430302D0C3074BD102E04000C00E8D
:1005F00048E0830701D5012044E0430701D50220EC
:1006000040E0030701D503203CE0C30601D50420E8
:1006100038E0830601D5052034E0430601D50620E5
:1006200030E0030601D507202CE0C30501D50820E2
:1006300028E0830501D5092024E0430501D50A20DF
:1006400020E0030501D50B201CE0C30401D50C20DC
:1006500018E0830401D50D2014E0430401D50E20D9
:1006600010E0030401D50F200CE0C30301D51020D6
:1006700008E0830301D5112004E0400301D51220D6
:1006800000E000209040014321666968E269880823
:10069000401C904210D820682B68826A9C46C9068C
:1006A000C90E0F238B409A4363469B001B0F8B4060
:1006B0001A4300E03BE082622168AB6828684A691F
:1006C0000002824318404001400902434A61286801
:1006D000002800DB66E72B4A116807239B051940B9
:1006E000294B984214D10B0212D4C0020143104688
:1006F00002F00FF9264825490068FFF735FD0C2167
:10070000401C484300E0401E00900028FBD149E710
:10071000204B984203D1CB0101D4800205E01E4B4F
:100720009842D7D14802D5D45802014325E001218F
:100730002069C907884202D0091D884206D1206875
:100740002968826A4903490B8A4382622868002823
:10075000C0DA0C4A116807239B0519400A4B9842DE
:1007600001D1C00208E00B4B984201D1800203E0A6
:10077000094B9842AED140028143104602F0C9F8BD
:1007800010E7000008270140001000B0400D0300F2
:1007900084000020004000B8002000B40068006C15
:1007A00070470000FEB50027044601973E460297B9
:1007B0000097002805D02546A06D2035002802D0DE
:1007C00007E00120FEBD204600F0FCF8E66554205D
:1007D000065520688168C900C90F12D18168724A24
:1007E0001140012212071143816071486F4900686E
:1007F000FFF7BAFC4000801C00E0401E009000287B
:10080000FBD120688168C900C90F08D1A16D1022F1
:100810001143A165E16D01221143E165174602F024
:100820006CF8A16DC90601D4002804D0A06D102178
:100830000843A065B4E0A06DFF2101318843022187
:100840000843A065206802F050F800286DD1217E91
:10085000A06889030843617ECA03A17E4B031A4343
:100860001043226B002A01D0012212031043E268D8
:1008700010432269002A02DA5200520801E00122E4
:10088000520510432A7B52001043019A10432A78E4
:10089000012A09D1002922D0A16D20221143A1658E
:1008A000E16D01221143E165616A002906D0FF2351
:1008B000C1331940A26A0143104608432168CA683F
:1008C0003C4B1A400243CA606168029A890F89074B
:1008D000E06C0A4310432A7F012A04D00CE0012176
:1008E00009040843E0E7636C226C491C1A43A36CBB
:1008F0000B4311461943084321680A692E4B1A40DD
:1009000002430A6103216068890788420DD05907B4
:1009100088420AD04900884207D0284A91680F23AC
:100920009B0499431840014391600021626B206849
:1009300001F0F6FF2249A26B206801F0F1FF0F20C1
:100940002169C04300291CD00122520591420AD1DD
:1009500021688A6A227F9200121FD206D20E90402E
:10096000226E1043886220684069616B4007400F27
:1009700088420BD1E665A06D80088000401CA06510
:100980000FE021688A6A02438A62ECE7A06D0221C7
:10099000884310210843A065E06D01210843E0650C
:1009A00001273846FEBD0000E8FFFF7F400D030031
:1009B000840000200102FEFF02FCFF1F002701400F
:1009C00004FFFF0710B586B0044614216846FFF700
:1009D000FAFB1149206888421BD1104802680121A6
:1009E00009050A4302600068084005900B4840383A
:1009F000426B01210A434263406B0091084005901D
:100A0000032001900020029005206946000700F0B5
:100A100067F906B010BD00000024014040100240FC
:100A2000F8B5044640690D46082809D02068C0681A
:100A3000C00707D0A06D20210843A0650120F8BDA4
:100A4000082600E0042600F00DFA074615E0681CB1
:100A500013D000F007FAC01BA84201D8002D0CD11A
:100A600020680068304208D1A06D04210843A065C9
:100A70000020403420750320F8BD20680068304213
:100A8000E5D0A06D012149020843A065206801F06E
:100A900038FF0C25002812D0A07E00280FD1206836
:100AA000016809070BD501F028FF012100280AD0B1
:100AB000A06D20221043A065E06D0843E065207E14
:100AC00000280BD00CE020684268AA434260A06D69
:100AD000FF22013290430843A065F0E720680560DB
:100AE0000020F8BD70B50446006801F006FF00283C
:100AF00002D00221084670BD25464035287D0128D8
:100B00000AD0012028752046FFF73EFC0146002050
:100B1000002903D02875EDE7022070BDA26D094BB6
:100B20001A40FF2301331A43A265E06523681C22A3
:100B30001A60287520688268034B1A40121D826073
:100B4000D8E70000FEF1FFFFE8FFFF7F70B5054624
:100B500004464035287D012807D001262E75204601
:100B6000FFF7A8FB002802D00CE0022070BD204651
:100B7000FFF7D0FB002805D1A16DFF220132914380
:100B80003143A1650021297570BD0000F0B5002832
:100B900008D0014620314A79022A05D00422C263D6
:100BA000002008710120F0BD026813680E24A343E1
:100BB0001360426C1468FF2301339C431460026885
:100BC00014686408640014600C4A5568066C1C24A0
:100BD000264001242746B7403D435560826CC56CD2
:100BE0005560026D002A05D015689D431560826D21
:100BF000406D42604C7100200871F0BD0000024061
:100C0000F8B50024024620325179022903D004218C
:100C1000C16301242DE001680B680E25AB430B6016
:100C200001680B685B085B000B60416C0B68FF257B
:100C30000135AB430B6010494D68066C1C231E4008
:100C400001231F46B7403D434D60816CC56C4D602C
:100C5000016D002906D00E681D02AE430E60416D85
:100C6000856D4D60537100211171816B002900D099
:100C700088472046F8BD00000000024070B50446D9
:100C800000F0F0F80546601C02D0044800782418F3
:100C900000F0E8F8401BA042FAD370BD78000020B5
:100CA0007047000070B5084D0446E868204203D044
:100CB000EC60204600F00AF82869204203D02C613D
:100CC0002046FFF7EDFF70BD00180240C11FF93943
:100CD00002D1024901200870704700005000002036
:100CE000F0B5002303249AE02A4601259D402A40BE
:100CF0007ED00E79B607B60F012E01D0022E16D186
:100D000086682746B4465E00B646B7406646BE4390
:100D1000B446CF687646B740664637438760466834
:100D2000AE430D79ED06ED0F9D40354345600D79DD
:100D3000ED43AD0708D0C5685F002646BE40B54309
:100D40008E68BE402E43C6600D79AD07AD0F022DF3
:100D50000ED1DD08AD002D18AC462D6A5E07F60EEB
:100D60000F27B740BD430F69B7402F4365462F6239
:100D700005685F002646BE40B5430E79B607B60F3C
:100D8000BE402E4306604D68AD03AD0F46D09E08B1
:100D9000264DB6007519AC462D6E9E07F60E0F2730
:100DA000B740BD4305273F07B84201D100270FE0F8
:100DB0001F4FB84201D101270AE01E4FB84201D1AE
:100DC000022705E01C4FB84201D1032700E00527A8
:100DD000B7402F43154D664637662D684E689543DC
:100DE000F60200D51543114F3D607D68954300E044
:100DF00014E04E68B60200D515437D600B4D80357A
:100E00006E684F689643BF0300D516436E602E6828
:100E10004F689643FF0300D516432E605B1C0A689B
:100E20001546DA4000D05FE7F0BD00000018024030
:100E30000004005000080050000C005000690840F9
:100E400000D001207047426913460B401B049143B8
:100E50000B4383617047002A01D081617047816232
:100E6000704700000148806870470000780000204B
:100E700002488168027889188160704778000020F4
:100E800010B5084800240168821511430160032051
:100E900000F00AF8002801D0012401E000F052F827
:100EA000204610BD0020024030B505461F4887B0DF
:100EB00002680121C9030A430260006808400090EB
:100EC00005A901A800F0E0F90498002815D000F069
:100ED000F7F940001649FFF747F9411E1648154A31
:100EE0000260164AC2604160002101618160816137
:100EF00000F054FF040003D015E000F0E1F9E9E749
:100F00000D4800F0A9FF04000DD1132000F034F8C3
:100F1000042D07D200222946132000F039F8084892
:100F2000056000E00124204607B030BD40100240BB
:100F300040420F0000200040B4030020E7030000FF
:100F40007C00002008B50B480168012211430160B4
:100F500000681040009007484038C26B01040A4303
:100F6000C263C06B0022084003210090481F00F0BC
:100F70000FF808BD40100240002805DBC106C90E6D
:100F800001208840014908607047000000E100E04E
:100F900010B502F001FD10BD10B50F4C2168032201
:100FA0005202914301432160C11FFF39FA390ED12A
:100FB0000A480621006848430949FFF7D5F8401C54
:100FC00002E0002805D0401E61694905F9D40020DF
:100FD00010BD032010BD0000007000408400002000
:100FE00040420F00F8B50446006800264D4D8003CE
:100FF00058D54C4800274038C06BC00009D4494838
:101000004038C26B01040A43C263C06B0840012729
:10101000009045480168821511430160FFF722FFE7
:10102000009005E0FFF71EFF0099401A022825D81E
:101030003D480068C005F5D5E8690321090208406C
:101040000FD0616981420CD0E86903210902EA6985
:101050008843012109040A43EA61EA698A43EA6193
:10106000E861C0070FD0FFF7FDFE009008E0FFF732
:10107000F9FE0099411A2D48814201D9032609E061
:10108000E8698007F3D5E8690321090288436169AB
:101090000843E861002F05D022484038C26B0104A4
:1010A0008A43C2632078C00705D0686961688008F8
:1010B0008000084368612078800606D568690321AE
:1010C00009038843A168084368612088400411D55A
:1010D00068692169800080080843686101212069EE
:1010E0008907884206D10F484038C168012212049E
:1010F0001143C1602088000512D568690321890366
:101100008843E168084368610121E06889038842F7
:1011100006D104484038C168012212041143C1605D
:101120003046F8BD401002400070004088130000B7
:10113000F8B50F46060043D04D4D28684007400FD4
:10114000B84213D22868C008C00038432860FFF7AF
:1011500089FE044605E0FFF785FE011B45488142F4
:1011600061D828684007400FB842F4D13068424C3B
:1011700081070DD5400704D5A0680721090308435E
:10118000A060A0680F2109028843B1680843A060ED
:101190003078C00732D0706801280AD002280BD0FE
:1011A00000280FD03449403103280ED0C96989077F
:1011B00004E02168890301E021688901002906DB38
:1011C0000120F8BD21684905F8E7096AEFE7A16841
:1011D000C908C9000143A160FFF744FE009006E082
:1011E000FFF740FE0099411A224881421BD8A068AF
:1011F000382108407168C9008842F1D12868400749
:10120000400FB84217D91A480168C908C9003943C4
:101210000160FFF727FE054607E0FFF723FE411BAD
:101220001448814201D90320F8BD114800684007E5
:10123000400FB842F1D13078400706D5A0680721A9
:1012400009038843F1680843A06000F04DF8A168E5
:101250003C2289091140094A515CC906C90EC8409F
:101260000749086007480068FFF71EFEF8BD000048
:101270000020024088130000001002400C6B0008A0
:10128000840000207C00002010B5072202600A4A7A
:1012900093685B075B0F436093680F24240223402D
:1012A0008360926807231B031A40C26003480068EA
:1012B0004007400F086010BD0010024000200240AF
:1012C0000648074900688968064A4904490F8900A9
:1012D000515CC906C90EC840704700008400002058
:1012E000001002404C6B000810B5204CA068204A4A
:1012F0008006400F16D0A0688006410F50100129CB
:101300000FD0A1688906490F022912D0A068800673
:10131000400F042823D0A0688006400F032821D066
:10132000002010BD206801218004400F814010463C
:1013300012E0E1688B07E1689B0F4906490F491CE1
:10134000032B00D01046FEF70FFFE1684904490E59
:101350004843E168490F491CFEF706FF10BD012014
:10136000C00310BD7D20000210BD0000001002402F
:101370000024F400F8B504007ED020783827C00798
:10138000E94D002846D0A868E96838408907890FE8
:10139000102802D008280BD001E0032908D0012032
:1013A0006268000482420AD129680143296015E07D
:1013B000286880032ED560680028DDD02AE0052348
:1013C00001211B0489049A422A6802D10A432A6037
:1013D000EAE782432A60286888432860606800281A
:1013E0000CD0FFF73FFD064604E0FFF73BFD801BF6
:1013F000642873D828688003F7D50BE0FFF732FD27
:10140000064604E0FFF72EFD801B6428F1D828680B
:101410008003F7D42078800769D5A868E968384048
:101420008A070721920FC902102802D0002813D082
:1014300001E0022A10D0E068002846D028688843DE
:101440002169084328602868FF210131084328608A
:10145000FFF708FD06462CE02A68520502D5E2682F
:10146000002A89D06A687F231B029A4363691B02A2
:101470001A436A60002800E08DE00ED12868884396
:10148000216908432860286801218004400F8140B9
:10149000A648FEF769FEA6490860A6480068FFF75F
:1014A00003FD002877D122E0FFF7DCFC801B022837
:1014B0009FD828684005F7D568687F2109028843CE
:1014C000616909020843686011E02968FF20013062
:1014D00081432960FFF7C6FC064605E098E0FFF768
:1014E000C1FC801B022884D828684005F7D42078E6
:1014F000914E00072ED5A8688006400F03280AD019
:10150000A0690028306A16D0012108433062FFF735
:10151000A9FC07460BE0306A80071BD5A0690028AC
:101520009FD017E0FFF79EFCC01B022870D8306ADE
:101530008007F7D50EE0400840003062FFF792FCCC
:10154000074604E0FFF78EFCC01B022860D8306A13
:101550008007F7D4207840076CD5A868002780065C
:10156000400F042818D0E86BC00008D4E96B0120B4
:1015700000070143E963E96B0140012700916F48CF
:101580000168C90519D40168821511430160FFF78C
:1015900069FC00900DE083E0F06980074AD5A068FF
:1015A00000287DD046E0FFF75DFC0099401A022834
:1015B0002ED862480068C005F5D5A168012910D071
:1015C00004200529F16911D049084900F161F16948
:1015D0008143F161A068002816D0FFF743FC00901A
:1015E0000EE0F06901210843F061F3E70143F16186
:1015F000F7E7FFF737FC0099411A5148814265D857
:10160000F0698007F5D50EE0FFF72CFC009007E0AD
:101610005CE0FFF727FC0099411A4948814255D800
:10162000F0698007F5D4002F04D0E96B0120000792
:101630008143E963E069002873D0A9688906490FEE
:1016400002294DD0012636060228286805D0B0436D
:101650002860FFF707FC04463AE0B0432860FFF734
:1016600001FC074604E0FFF7FDFBC01B02282DD854
:1016700028688001F7D4616A206AA26A0843E16A97
:10168000120211430843216B0843E9682D4A1140B7
:101690000843E860286830432860E868012100E0DA
:1016A0003DE009070843E860FFF7DCFB044604E07F
:1016B000FFF7D8FB001B022808D828688001F7D55F
:1016C0002FE0FFF7CFFB001B022801D90320F8BD54
:1016D00028688001F5D4E8681B490840E86020E0EC
:1016E0000128F4D0E868226A8107890F914216D157
:1016F0007021626A0140914211D17F21A26A0902E0
:101700000140120291420AD11F214904E26A0140BC
:10171000914204D1400F216B4007884201D0012043
:10172000F8BD0020F8BD0000001002400024F400C5
:10173000840000207C000020401002400070004027
:10174000881300008C80C11FFCFFFEEF10B50068FD
:101750000B464068C021C94301400002000ECC0482
:10176000D870E40E5C708C06A40E0904490F9C70BE
:101770001970002A0AD101F000FBD870587801F0E6
:10178000FCFA5870987801F0F8FA9870002010BDB3
:1017900010B50B46016889685960016809694904F8
:1017A000490C9960006801680E4801408802800E6B
:1017B0004C041870640E5C704C06640E4902C90F2C
:1017C0009C70D970002A0AD101F0D7FA18705878A5
:1017D00001F0D3FA5870987801F0CFFA9870002091
:1017E00010BD00007F7F7F0070B504460120002CF3
:1017F0004BD025462035687A002806D12872112062
:10180000C0026060204600F047F80220687220683D
:10181000C168C943C90639D5CA214162216853202C
:101820004862204601F0BDFA002829D1206881696C
:10183000184A1140816121688869A268E3691043F0
:1018400062691A4310438861216820690861206831
:101850000169A289120411430161204601F0C4FA12
:1018600000280DD121688A69D200D2088A612168D6
:101870008A69636AA6691A43236A33431A438A61F1
:101880002268FF215162002801D070BD0020012193
:10189000697270BDBFFF8FFB10B588B00446182178
:1018A0006846FEF790FC1049206888421AD1012052
:1018B00040040090001205906846FFF793FB002853
:1018C00001D0FEF7C2FD0948C1690122D2031143CC
:1018D000C16106484038C26B01150A43C263C06B40
:1018E0000840069008B010BD00280040401002409B
:1018F000F8B5064605462036307A0B4601280FD04B
:101900000127377202207072002A0BD0D8789C7899
:10191000000404435878097800024903084317E09B
:101920000220F8BD5878C10603D5EF2108400A30DF
:101930005870D87801F029FA0404587801F025FA93
:1019400000020443987801F020FA04431878400319
:1019500004432968CA2048622968532048622846FF
:1019600001F01FFA002806D10748044028684460A7
:10197000284601F039FA2A68FF215162002800D177
:10198000777200213172F8BD3FFFFF00F7B50646C0
:1019900005462036307A0C46012810D001203072DE
:1019A000022070722968CA20486229685320486260
:1019B000284601F0F6F90027002802D027E002208F
:1019C000FEBD029800282868806926D0400600D411
:1019D000E7702078A378000403436078E178000280
:1019E00089050843034318480340286803602868B2
:1019F000816901229204914381612169E068084371
:101A000029688A6910438861284601F0EDF92A683F
:101A1000FF215162002813D014E0400600D4E77083
:101A2000207801F0B2F90304607801F0AEF9000209
:101A30000343A07801F0A9F90343E0788005D1E7DA
:101A4000012171723772FEBD7F7F7F0070B5044641
:101A50000068C168A0229143C160FFF703FA7D26A8
:101A60000546F60006E0FFF7FDF9401BB04201D93C
:101A7000032070BD2068C0688006F4D5002070BDCA
:101A8000F8B504000CD0606A002500280AD0256152
:101A9000656126464036A562707F002808D00BE0BD
:101AA0000120F8BD6168C81FFD38F2D0E561F0E79C
:101AB0003577204600F05CF80222727720680168D2
:101AC0004023994301600723E1681B02994201D931
:101AD000002001E0012000030F273F02B94202D09D
:101AE000994200D0A562FF23616805331940212780
:101AF000A368BF023B40194323691340227D194369
:101B0000D207D20F11430123A2695B021A4011438D
:101B1000E26938231A401143226A80231A40114394
:101B2000A26A9B011A40114322681160A169042234
:101B3000090C1140626A10231A401143626B08239A
:101B40001A4011430F23E2681B021A40114301227D
:101B5000120310400143206841602068C16952109F
:101B60009143C1612566012070770020F8BD000017
:101B700010B586B0044614216846FEF724FB1149CF
:101B8000206888421BD11048026881140A43026011
:101B90000068084005900C484038426B02210A4317
:101BA0004263406B0191084005902820009000207E
:101BB00002900390049069460448FFF791F806B03C
:101BC00010BD0000003001404010024000040050F1
:101BD000FFB5054604464035287F002781B01646EC
:101BE000012809D001202877FFF73CF90090687F91
:101BF000012804D0022795E0022005B0F0BD02982C
:101C0000002872D0002E70D0032068770020206654
:101C10000299A163A687E6872064A880E8802065F2
:101C2000E0640122A068D2034021904208D12068DC
:101C300002688A430260206802680B021A4302604D
:101C400020680268520602D402680A430260072133
:101C5000E06809028842606826D9002801D0012E78
:101C60001ED1A06B21680088C86006E020688168EA
:101C7000890709D5A16B0988C160A06B801CA0638E
:101C8000E08F401EE0870BE0FFF7ECF80099411A67
:101C90000498814202D3401C02D039E0002837D09A
:101CA000E08F0028E2D126E0002801D0012E1FD1CC
:101CB000A06B21680078087306E0206881688907B6
:101CC00009D5A16B09780173A06B401CA063E08F5C
:101CD000401EE0870CE0FFF7C5F80099411A049810
:101CE000814203D3401C03D012E01AE000280FD039
:101CF000E08F0028E1D12046009A049901F09CF879
:101D0000002801D020202066A068002802D005E02D
:101D1000032707E02068C16880680090206E0028D3
:101D200000D001270120687700202877384664E733
:101D30007047704770470000F0B5034620331A7FA4
:101D4000012A24D001221A7702225A770468626895
:101D5000A568104FBC4205D116460F2212059643C6
:101D60004A6832437026B2430E68164366600068C4
:101D7000B84202D0084A904204D180228968954333
:101D8000294381600120587700201877F0BD022098
:101D9000F0BD0000002C01400004004070B50400BC
:101DA00005D025462035687F002802D006E00120B6
:101DB00070BD00202877204600F016F802206877D2
:101DC000211D206801F000FA012240342272AA7716
:101DD000EA7722706270A270E27022716271A27161
:101DE000E2716A77002070BD08B500680649884234
:101DF00008D106480268012149040A4302600068CC
:101E00000840009008BD000000440140401002401E
:101E1000014620314A7F012A01D001207047022269
:101E20004A770068094A0121904202D0084A90424C
:101E300007D18268074B1A40062A05D0DB1F9A4259
:101E400002D002680A43026000207047002C014063
:101E50000004004007000100014620314A7F012AAA
:101E600001D00120704702224A770168CB68012225
:101E70001343CB6000680949884202D00849884270
:101E800007D18168074B1940062905D0DB1F99420D
:101E900002D001681143016000207047002C01400E
:101EA000000400400700010001680A6A074B1A425B
:101EB00007D10A6A9B101A4203D10A6852085200DD
:101EC0000A60012120304177002070471111000085
:101ED0007047000070B50446006801690025C943D9
:101EE0008907002915DBC168C943890711D4E91E98
:101EF000016101202077206880698007204602D098
:101F0000FFF7E6FF04E000F0CDF8204600F098F976
:101F1000257720680169C943490717D4C168C943B7
:101F2000490713D40421C9430161022020772068A6
:101F300080698005800F204602D0FFF7C9FF04E0CA
:101F400000F0B0F8204600F07BF9257720680169A1
:101F5000C943090716D4C168C943090712D4082127
:101F6000C9430161042020772068C06980072046AA
:101F700002D0FFF7ADFF04E000F094F8204600F037
:101F80005FF9257720680169C943C90617D4C1687C
:101F9000C943C90613D41021C94301610820207721
:101FA0002068C0698005800F204602D0FFF790FFAF
:101FB00004E000F077F8204600F042F92577206829
:101FC0000169C943C90708D1C168C943C90704D118
:101FD000891E0161204600F095F920680169C94316
:101FE000090609D4C168C943090605D48021C9433B
:101FF00001612046FFF79DFE20680169C943C905BC
:1020000008D4C168C943090604D4124901612046B5
:10201000FFF78EFE20680169C943490609D4C168EB
:10202000C943490605D44021C9430161204600F057
:1020300073F920680169C943890609D4C168C94395
:10204000890605D42021C94301612046FFF772FEAD
:1020500070BD0000FFFEFFFF10B586B004461421DE
:102060006846FEF7B0F80C492068884212D10B4848
:10207000426B02210A434263406B01910840059084
:1020800001200021009002910391049069460448C8
:10209000FEF726FE06B010BD00040040001002400E
:1020A000000400507047F8B504460020264620364C
:1020B0000090307F0D4601280CD001200827307792
:1020C0000C2A48D008DC002A10D0042A1ED0082A86
:1020D00006D130E00220F8BD102A52D0142A60D078
:1020E00001200090002030770098F8BD206801F0B2
:1020F000B5F82068816939438161206881690422CB
:1021000091438161206881692A6911E0206801F0AA
:10211000E3F8206881690122D202114381612068BD
:102120008169521091438161206881692A69120294
:1021300011438161D6E7206801F00CF92068C1697C
:102140003943C1612068C16904229143C16120689B
:10215000C1692A6912E0206801F03AF92068C16972
:102160000122D2021143C1612068C26901218902A2
:102170008A43C2612068C1692A6912021143C161A0
:10218000B0E7206801F05AF92068416D3943416594
:102190002068426D04218A4342652068416D2A69A6
:1021A00012E0206801F078F92068416D0122D20226
:1021B000114341652068426D012189028A434265CD
:1021C0002068416D2A691202114341658AE770B5A2
:1021D000040005D025462035687F002802D006E09F
:1021E000012070BD00202877204600F017F802205B
:1021F0006877211D206800F0E7FF01224034227239
:10220000AA77EA7722706270A270E270227162711E
:10221000A271E2716A77002070BD000008B5006805
:102220000549884207D10548C26B02210A43C263AF
:10223000C06B0840009008BD000400400010024040
:102240007047000030B505460223203000290ED02B
:10225000042911D02C464034082912D00C2915D05D
:10226000102918D0E278012A1AD0012030BD827FCF
:10227000012AFAD1837714E0C27F012AF5D1C3770E
:102280000FE02278012AF0D123700AE06278012A57
:10229000EBD1637005E0A278012AE6D1A37000E0DB
:1022A000E3700122286800F0CBFF114A28689042B1
:1022B00005D01049884202D00F49884204D1416CB0
:1022C0000123DB031943416428680121904202D0B5
:1022D0000A4A904207D18268094B1A40062A05D063
:1022E000DB1F9A4202D002680A430260002030BD20
:1022F000002C01400044014000480140000400401F
:102300000700010010B500680249884201D1FEF7BC
:10231000AFFD10BD00200040704710B50146803170
:102320000A79012A15D001220A7124228A600268E2
:102330001368146864086400146001225207934310
:102340000022426600680360202088600A711046FF
:1023500010BD022010BD7047704770B50446054699
:102360008034207901281AD0012020712420A06017
:10237000286806680268520852000260286882686D
:1023800007235B069A430A438260284601F0B6F8A9
:10239000286806602020A0600020207170BD022007
:1023A00070BD70B50446054680342079012819D0E7
:1023B000012020712420A060286806680268520865
:1023C0005200026028688268D200D2080A43826004
:1023D000284601F093F8286806602020A0600020BD
:1023E000207170BD022070BD7047704770470000BB
:1023F000F8B503680446D96918689A68B44D0E4662
:102400002E4025468035002E75D0B24EB24F164074
:10241000074037436ED0CF0706D0C70504D5012744
:102420001F622B693B432B618B0708D5D30706D06E
:10243000276802233B622B6904273B432B614B0730
:1024400008D5D30706D0276804233B622B690227EF
:102450003B432B610B0709D520230340334305D0B1
:102460002668082333622E691E432E610B0509D5A9
:10247000430107D501232668DB0233622B6920263E
:1024800033432B612B69002B42D089060AD52021CA
:102490000840C9050A40104304D0616F002901D0EB
:1024A00020468847286921688968490602D428217E
:1024B000084232D0204601F0E5F8216888684006DD
:1024C00027D5EFF31080012282F310888B68402219
:1024D00093438B6080F310882868002819D07F49C7
:1024E00081632868FEF78CFB002811D02868816B77
:1024F0000DE000E017E08E0615D5012720263F07E6
:10250000064017403E430ED0616FB5E02046884735
:10251000F8BD2046FFF76AFFF8BD2046FFF766FFCB
:1025200000202861F8BDE66E012E7DD1CE067BD558
:10253000C60679D510221A62236898682646400696
:102540004036002849DA2968086840680004000C11
:10255000E8D0B78B8742E5D9F08308680068800629
:1025600034D4EFF31080012181F31088196817012A
:10257000B943196080F31088EFF31080012181F3D3
:10258000108821688B685B085B008B6080F3108883
:10259000EFF31080012181F3108821688B684027B8
:1025A000BB438B6080F310882020E8600020E06649
:1025B000EFF31080012181F3108821680B689343A9
:1025C0000B6080F310882868FEF7E0FA022020678D
:1025D000B08BF18B401A81B235E0B08BF18B401A91
:1025E00081B2F08B00289DD000299BD0EFF31080A2
:1025F000012686F310881E68FF272137BE431E6020
:1026000080F31088EFF31080012383F31088236890
:102610009E68304FFF433E409E6080F3108820202C
:10262000E8600020E06600E011E06067EFF31080F2
:10263000012383F3108823681D6895431D6080F390
:102640001088022020672046FFF785FEF8BDCE02E5
:1026500008D5560206D50120000518622046FFF76E
:10266000C4FEF8BD0E060BD501278026FF050640E7
:102670003A40164304D0A16F002900D046E7F8BDC8
:102680004A0614D5420612D52046EFF310810122E6
:1026900082F310881A684024A2431A6081F31088DC
:1026A0002021A9600021816700F01DF9F8BD0A0210
:1026B00005D5420003D52046FFF796FEF8BDC901B7
:1026C000FCD50028FADA2046FFF746FEF8BD0000E8
:1026D0000F080000010000102001000471360008FE
:1026E00070B5040005D025468035A868002802D0C2
:1026F00006E0012070BD00202871204600F026F879
:102700002420A8602068016849084900016020462B
:1027100000F0EAFF0128EDD0A06A002802D0204690
:1027200000F00EFF206841680922D2029143416007
:10273000206881682A229143816020680168012213
:1027400011430160204600F061FF70BDF0B58DB00F
:10275000044614216846FDF736FD182105A8FDF74B
:1027600032FD2B4920682B4C022700260125884288
:102770002FD105A806960595FEF734FC002801D058
:10278000FDF763FE234840300268012189030A43B4
:102790000260006808400B90606B28436063606BC8
:1027A0000296C007C00F0B90032040020090052046
:1027B00069460197039604950007FEF791FA0022F7
:1027C00003211B20FEF7E4FB1B20FEF7D5FB0DB019
:1027D000F0BD11498842FAD1E16B01204004014368
:1027E000E163E16B01400B91606B28436063606BB8
:1027F0000296C007C00F0B900C2000900520694680
:102800000197039604950007FEF76AFADFE70000D8
:10281000003801400010024000440040FFB5074668
:1028200004468037B86883B00D46202802D00220C5
:1028300007B0F0BD002D0CD00598002809D001206C
:10284000A1680003814206D12069002803D1E8076E
:1028500001D00120ECE7002038612120B860FEF7AC
:1028600001FB0190264640360598B0820598F0821B
:102870000120A1680003814202D12069002802D012
:102880000295002515E00020029012E00022802130
:10289000204600F0DDFF002818D10298002817D04C
:1028A0002168007888620298401C0290F08A401EDD
:1028B000F082F08A019B002806980090E6D1002261
:1028C0004021204600F0C4FF002808D00320AFE7D5
:1028D00028882168C005C00D8862AD1CE6E720206D
:1028E000B8600020A4E77047FEE78068C007C00F0B
:1028F00070478068C007C00F704780684007C00FEE
:102900007047C0680005800F01D00020704701208B
:102910007047026807239B059A430A430260704789
:1029200010B543690424214007248C40A3438A4006
:102930001343436110BD70B506467F2300211A463C
:10294000084600F00DF82C2002F0A8F9002401251B
:10295000AD03304602F052F9641CAC42F9D370BDAD
:10296000F8B507461C4615460E462A2002F096F991
:10297000002002F071F9BF1CF8B202F06DF90020DE
:1029800002F06AF9AD1CE8B202F066F92B2002F001
:1029900085F9002002F060F9F61CF0B202F05CF953
:1029A000002002F059F9E41CE0B202F055F9F8BD3C
:1029B0003EB50021174800910191154A029102602D
:1029C000120581604260C1605200026104224261CE
:1029D000017641760124847641620246C461203248
:1029E000816211730723436301631177C164FDF7AB
:1029F000D9FE002801D0FDF728FD0094694605485E
:102A00000194FDF7B9FD002801D0FDF71EFD3EBD84
:102A1000002401400001002030B593B000250121C1
:102A20000FA80F9501F091FC194C0121E06110A84D
:102A3000109501F08AFC206216480022006811906F
:102A4000012111A801F0DEFC1249A0611422091D28
:102A50006846FDF79FFB0021684601F0BBFC0D496D
:102A6000E0601422183105A8FDF794FB002105A8A9
:102A700001F0B0FC0749206114222C310AA8FDF7AF
:102A800089FB00210AA801F0A5FC606113B030BDEC
:102A900054000020A46A0008F0B587B014216846ED
:102AA000FDF791FB2748426B20210A434263426BAA
:102AB0000A400592416B012529434163416B29403E
:102AC0000591426B02210A434263406B0022084099
:102AD000059056211C48FEF7BEF9EE0305200022A2
:102AE00031460007FEF7B7F90122170239461648AA
:102AF000FEF7B1F9FF205730002400900294694698
:102B0000019503941048FEF7EBF8112000040190A2
:102B100005206946009702940007FEF7E1F80520BA
:102B2000029469460007009601950394FEF7D8F8D1
:102B3000002203210720FEF72BFA0720FEF71CFADC
:102B400007B0F0BD001002400004005010B586B080
:102B500014216846FDF737FB00241E4805941C49E4
:102B6000846001607F21C16044618461FF21C46190
:102B700001610121890744620162FEF735FE0028E8
:102B800001D0FDF762FC68460470447084700194C3
:102B90000394012269460F480494FEF7F7FE0028CB
:102BA00001D0FDF752FC04216846017509214175E9
:102BB000122181752421C175012205A90548FEF75E
:102BC00097FE002801D0FDF740FC06B010BD0000C4
:102BD000002800406401002010B511480F49016031
:102BE000FF2105314160002107228160120201614D
:102BF000C260012241615202826101621822416277
:102C0000C26181620722C262016308214163FEF74B
:102C100037FF002801D0FDF718FC10BD003001403F
:102C20009001002010B50A48084901603F21416029
:102C3000002181600161074A4161C2608161FFF743
:102C4000ADF8002801D0FDF700FC10BD00440140A4
:102C500040020020FFFF000010B58AB00024079456
:102C600008941C2168460994FDF7ADFA18481749E5
:102C700001603F21846041607D21C9000461C16021
:102C800080218161FFF7A3FA002801D0FDF7DDFB69
:102C9000079407A90E480994FFF74EF8002801D0C1
:102CA000FDF7D3FB7020009001940294082269463E
:102CB00004940748FFF7F7F9002801D0FDF7C5FB9A
:102CC0000348FFF7C9F90AB010BD00000004004036
:102CD000F401002010B51848164901604B21C901C4
:102CE000416000218160C16001618161C161016257
:102CF0000C22416242618162FFF7F2FC002801D0A0
:102D0000FDF7A3FB00210C48FFF74BFB002801D087
:102D1000FDF79BFB00210848FFF71FFB002801D0AF
:102D2000FDF793FB0448FFF7F8FA002801D0FDF700
:102D30008CFB10BD003801408C02002010B50D48FE
:102D40000B4901604B21C901416000218160C160D4
:102D500001618161C16101620C2241624261816253
:102D6000FFF7BEFC002801D0FDF76FFB10BD00008F
:102D70000044004020030020FEE701090A2200076A
:102D80005143000F4018C0B270470022014602E0D4
:102D90000A39C9B2521C0A29FAD21007000E084398
:102DA0007047F8B5044600680025C168490618D484
:102DB000C16880221143C160FEF754F827460646D9
:102DC000203708E0FEF74EF8811B7D20C0008142CD
:102DD00001D903257D722068C068400601D4032D07
:102DE000F0D12846F8BD0000F8B5124C0026E16885
:102DF00080229143E160A1690546890620350029BA
:102E000007DBFEF723FE002811D003206872064678
:102E10000DE0A1692027B943A161FEF717FE002844
:102E200002D0032068720646A0693843A06130468C
:102E3000F8BD000000280040F8B50F460B461546C7
:102E40000092032104460022C90200F01BF820264C
:102E5000002812D13B46002280212046009500F038
:102E60007DF8002809D103213B4600224902204673
:102E7000009500F007F8002803D0206E304320664C
:102E80000320F8BDFFB585B00E4604460020694614
:102E90000E9D17460871FDF7E5FF411B0898451A7E
:102EA000FDF7E0FF0390206823210C3002902A48B0
:102EB00000684843000D684346E003204002864214
:102EC00006D1002F04D1029801786846017100797B
:102ED0000898401C39D0FDF7C5FF0399401AA84255
:102EE00005D2002D03D0009800282BD02BE02068BD
:102EF0004168E022914341606068C11FFD390CD1F7
:102F00000121A068C903884202D04911884204D136
:102F1000206801684022914301600120A16A4003BA
:102F2000814207D121680A6882430A6021680A68E1
:102F300002430A600120403460770020207703209C
:102F400009B0F0BD0025401E009020688068304028
:102F5000B842B2D10020F3E784000020FFB581B071
:102F60001E4604460A9DFDF77DFF401B351AFDF7FE
:102F700079FF0746264800684001000D684339E0A4
:102F8000701C38D0FDF76EFFC01BA84205D2002D83
:102F900003D0009800282BD02BE020684168E02265
:102FA000914341606068C11FFD390CD10121A068C7
:102FB000C903884202D04911884204D120680168BF
:102FC0004022914301600120A16A4003814207D160
:102FD00021680A6882430A6021680A6802430A601D
:102FE00001204034607700202077032005B0F0BD39
:102FF0000025401E0090206881680298884305D013
:10300000002103988142BBD10020EFE70121F8E7BE
:103010008400002070470000274C2649E06901F039
:10302000A7F97D26F600254D254F01F051F83046D1
:1030300001F07EF928780128F7D10A20FDF71EFE5D
:10304000FF21052001310007FDF7F8FE0128ECD132
:103050001C48FDF7FDF91B48FDF744FD15491948CB
:10306000FDF7DEFC1748FDF799FB60601548FDF79A
:103070006DFD606800F088FFA06068280AD06428B1
:103080000DD065280DD0662811D06728CDD100203D
:103090002070CAE701F090F801F01AF8C5E70022A5
:1030A00000E0012206213846FDF7D5FEBDE70120EC
:1030B000EEE70000FFFF0000540000205000002059
:1030C00000040050000100200E4E0F4D3078012802
:1030D00007D012E029686000C8631E2001F028F9BB
:1030E000641C642CF6DB642429686000C8631E201D
:1030F00001F01EF9641E002CF6DC012001F018F925
:10310000E4E7000054000020F40100207D24E400E6
:1031100000F0C8FE204601F00BF9012001F008F98B
:10312000F6E7000010B5FCF7E9FF044602F0EEFAFE
:10313000002803D001200349000748602046FCF71F
:10314000E1FF10BD00ED00E030B591B034216846DC
:10315000FDF739F8002401200D940E940F944002DD
:103160001094FDF719FF0920009001200004019040
:10317000012006900320089010200A9040030225A9
:103180000B90079500030C9009946846FEF7F2F83F
:10319000002801D072B6FEE707200D900F9402219F
:1031A0000E9510940DA8FDF7C3FF002801D072B64C
:1031B000FEE711B030BD704710B50248FEF78AFE39
:1031C00010BD0000B403002070B50268174B184E04
:1031D000984201D0B04203D17024A2434C682243EC
:1031E000144C154D984208D0B04206D0134EB04250
:1031F00003D0A04201D0A84204D103263602B24334
:10320000CE6832438026B2434E69324302608A68F8
:10321000C2620A688262984203D0A04201D0A842EA
:1032200001D1096901630121416170BD002C014098
:1032300000040040004401400048014000200040DC
:1032400010B5CB06DB0E0121046A99408C43046261
:10325000016A9A401143016210BD0000F0B5026A94
:10326000520852000262056A43688269164C184E81
:10327000224092080C6892001443022295438A6807
:103280002A43124DA84204D0B04202D0114FB84296
:1032900006D10827BA43CF681743042297433A461A
:1032A000A84204D0B04202D00A4DA84206D103255C
:1032B0002D02AB434D691D438B692B4343608461F1
:1032C000496841630262F0BD8FFFFEFF002C0140A0
:1032D000004401400048014070B5026A10239A433F
:1032E0000262046A43688269164D2A4003252D0252
:1032F000AA430D682D021543202294438A681201C7
:103300002243114CA04208D11446CA688026B44317
:10331000120122434024A24305E00C4CA04202D0FB
:103320000B4CA04208D10324A402A3434C69A4007F
:103330001C438B699B00234343608561496881631B
:10334000026270BDFF8FFFFE002C0140004401406F
:103350000048014070B5026AFF2301339A430262BC
:10336000046A4368C269164D2A4092080D689200AB
:1033700015430122520294438A6812022243114CDF
:10338000A04208D11446CA68C614B44312022243AC
:103390000415A24305E00C4CA04202D00B4CA04205
:1033A00008D103242403A3434C6924011C438B69E3
:1033B0001B0123434360C5614968C163026270BD5C
:1033C0008FFFFEFF002C01400044014000480140F7
:1033D00030B5026A01231B039A430262046A4568FE
:1033E000C269124B1A4003231B029A430B681B024B
:1033F00013430122520394438A68120322430C4C64
:10340000A04205D00B4CA04202D00B4CA04206D1EA
:103410002C460125AD03AC434D69AD012543456004
:10342000C36149680164026230BD0000FF8FFFFE86
:10343000002C0140004401400048014070B5026A80
:1034400001263604B2430262036A4268446D0E4D9F
:103450002C400D6825437400A3430C8924041C43AD
:103460000A4B984205D00A4B984202D0094B984229
:1034700003D14B69B2431B021A4342604565496858
:103480008165046270BD00008FFFFEFF002C0140CB
:10349000004401400048014070B5026A01231B0549
:1034A0009A430262036A4268456D104C25400C68DD
:1034B00024022C4301256D05AB430D892D051D43C9
:1034C0000B4B984205D00B4B984202D00A4B9842C6
:1034D00006D101261346B6044A69B34392021A4341
:1034E000426044654968C165056270BDFF8FFFFE9B
:1034F000002C01400044014000480140F8B504465A
:10350000416E4034002915D0006881688068090147
:103510004D0F0A4E400F3746315C083F385CC00003
:10352000FCF722FE6085785D715DC000FCF71CFE33
:103530002085F8BD01206085FAE70000046B0008D3
:1035400010B5018DC90707D001684A6801235B04E3
:103550009A43C36A1A434A60018D890707D50168F7
:103560004A6801231B049A43036B1A434A60018D86
:10357000490707D501684A6801239B049A43436BB6
:103580001A434A60018D090707D501684A6801237B
:10359000DB039A43836B1A434A60018DC90607D542
:1035A0000268916801231B039943C36B194391601F
:1035B000018D890607D501688A6801235B039A4358
:1035C000036C1A438A60018D490612D503685A6854
:1035D00001210905446C8A4322435A60426C8A42A5
:1035E00007D10268516803235B059943836C194333
:1035F0005160018D090607D501684A680123DB0483
:10360000C06C9A4302434A6010BD0000FEB50646F6
:103610000025803604463561FDF724FC01902068C2
:103620000068124F000709D50121009700224905C3
:103630002046019B00F00CF900280DD1206800689D
:1036400040070BD501210097002289052046019BE8
:1036500000F0FEF8002801D00320FEBD2020B0605D
:10366000F060E566256735710020FEBDFFFFFF01B4
:1036700010B5806A002201464031CA83CA82FEF733
:10368000B5FE10BD10B5EFF31081012282F3108852
:1036900002681368FF242134A343136081F3108868
:1036A000EFF31081012282F31088026893680D4CB9
:1036B0002340936081F31088C16E01290BD1EFF391
:1036C0001081012282F31088026813681024A3433A
:1036D000136081F3108820228C210A500021C166DA
:1036E000416710BDFEFFFFEFF8B504468068216911
:1036F000E2690843616900251143226808431168A3
:103700004B4B1940014311602068416803221203AA
:103710009143E26811434160A169206A084321682E
:103720008A68444B1A4002438A602068C16A626A10
:10373000090909011143C1623F492068884211D13A
:103740003E4840698007800F0FD0012806D002282C
:1037500002D003280BD103E0022109E0042107E095
:10376000082105E03649884201D1002100E01021FE
:103770000120E369C003334A334E344F834227D1DB
:10378000002906D0022907D0042907D008293FD1F3
:1037900008E0FDF795FD03E0104603E0FDF7A4FD0A
:1037A00000283AD0616A4900715AFCF7DDFC616873
:1037B00040004A088018FCF7D7FC01461039B9428E
:1037C00026D82249491C01400007400F084322E047
:1037D000002906D0022907D0042907D0082917D1CB
:1037E00008E0FDF76DFD03E0104603E0FDF77CFD0A
:1037F000002812D0616A4900715AFCF7B5FC616873
:103800004A088018FCF7B0FC01461039B94201D9CA
:10381000012502E080B22168C860204601214030C5
:103820004185018500206067A0672846F8BD00003B
:10383000F369FFCFFFF4FF11003801404010024050
:10384000004400400024F400E46A0008EFFF000098
:10385000FFB581B005461746044680350A9E54E000
:10386000701C52D0FDF7FEFA0499401AB0422FD8CE
:10387000002E2DD020680168490746D5C069C04395
:10388000000542D401202168C0020862EFF31080D5
:10389000012181F3108821680B68FF22A132934334
:1038A0000B6080F31088EFF31080012181F3108802
:1038B00021688A68520852008A6080F310882020AC
:1038C000A860E860286100202871032005B0F0BDE1
:1038D000EFF31080012181F3108821680A68FF232B
:1038E000A1339A430A6080F31088EFF3108001211E
:1038F00081F3108821688A68520852008A6080F338
:1039000010882020A860E860DDE72068C16902987F
:10391000884304D00020B842A2D00020D6E701207E
:10392000F9E7000010B50248FEF762FD10BD000087
:103930008C0200200FB410B503A9044B044A02986E
:1039400000F05CF810BC08BC04B01847693F0008E0
:10395000FC0000200FB410B504A9074B02AA03987D
:1039600000F04CF8044602A9002000F081FA20463D
:1039700010BC08BC04B01847713E000830B474464F
:10398000641E2578641CAB4200D21D46635D5B005B
:10399000E31830BC184700008307FF22DB0E9A4073
:1039A0008907090E9940002808DB830809489B0015
:1039B0001B18186890430843186070470007000FF1
:1039C0000838830804489B001B18D86990430843B3
:1039D000D861704700E400E000ED00E002E008C8B4
:1039E000121F08C1002AFAD170477047002001E079
:1039F00001C1121F002AFBD170470000FFB591B032
:103A00000F460546002606E025280AD0149A139989
:103A100090476D1C761C28780028F5D1304615B0EB
:103A2000F0BD002400940121F34A029400E0044315
:103A30006D1C2B780846203B98401042F7D128781F
:103A40002A280ED0022128780246303A092A15D8B1
:103A5000009A0A235A43303A80180C436D1C009098
:103A6000F1E701CF0090002805DA0120400304436C
:103A7000009840420090022004436D1C28782E28B4
:103A800015D10420044368786D1C2A280AD101CF7F
:103A90006D1C02900BE002990A2251433039401804
:103AA0006D1C02902878014630390929F3D928780D
:103AB0006C2810D006DC4C281AD068280ED06A2852
:103AC00017D104E0742813D07A2812D110E0012015
:103AD000400504430CE00121090501E0032109052B
:103AE0000C436978814203D10120000524186D1C24
:103AF0006D1C287803906E281ED00CDC632831D012
:103B000004DC00288AD0582811D1B2E064287BD088
:103B100069280CD178E073282DD004DC6F2870D090
:103B2000702804D1A7E075286CD078286BD0149A3F
:103B300013999047761C62E06002400F022807D07C
:103B400003280AD0042838680AD006603F1D56E0D2
:103B50003868F11706604160F8E738680680F5E7D5
:103B60000670F3E73878694608740020487404A8A2
:103B70000390012003E0386803900020C0433F1DFC
:103B800061070FD5002101E00199491C029A0191BA
:103B9000914213DA8142F7DB019A0399895C00298B
:103BA000F2D10BE0002101E00199491C0191814211
:103BB000FADB019A0399895C0029F5D101990098F3
:103BC000139A401A00902146149B00F03BF901998A
:103BD0008019461807E0039803990078491C03915F
:103BE000149A139990470198401E0190401CF2D1FD
:103BF0002146149B139A009800F014F986196D1C45
:103C000009E741E033E034E00A2000210490059107
:103C10006002410F022905D001CFC2179446032943
:103C200005D007E0FF1DFF08FF0003CF06E000B24C
:103C3000C2179446042902D140B2C1178C46002213
:103C40006146944506DA0A460021404291418C467D
:103C50002D2102E0210504D52B216A461176012190
:103C600003E0E10701D02021F7E7019154E00A20A9
:103C70000BE0102009E010200490002104200443F0
:103C800008200591029003E008200021059104908E
:103C90006002410F022905D001CF0022944603297A
:103CA00006D006E0FF1DFF08FF0003CF8C4603E0AF
:103CB00080B2042900D1C0B20021019121072BD587
:103CC0000399702906D0049A1021059B4A401A4393
:103CD00005D00EE040216A461176012108E06146D8
:103CE000014306D030216A461176039951760221AC
:103CF0000191049A0821059B4A401A430CD1614660
:103D0000014301D1610707D530216A4611760121AF
:103D100001910299491E02910399582904D037A1B3
:103D200003910FA90F910DE039A1F9E76146059BB9
:103D3000049AFCF75AFA039B8C469B5C0F9A521E1E
:103D40000F92137061460143F0D10F9807A9081A2A
:103D500020300390600704D50120000484430298BA
:103D600001E0012002900399884201DD401A00E041
:103D7000002041180290019809180098401A0090FC
:103D8000E00306D42146149B139A009800F05AF8D9
:103D900086190020049008E006A9085C149A13997B
:103DA00090470498401C761C049001998842F3DBEC
:103DB000E0030CD52146149B139A009800F042F8BA
:103DC000861904E0149A302013999047761C0299C2
:103DD000481E02900029F5DC08E00F980F99007842
:103DE000491C0F91149A13999047761C0399481E09
:103DF00003900029F1DCFBE6092801003031323361
:103E00003435363738396162636465660000000016
:103E10003031323334353637383941424344454600
:103E200000000000F8B5044600251E461746880429
:103E300004D405E039462020B0476D1C641EF9D536
:103E40002846F8BDFFB50446002581B01E46C803CC
:103E500001D5302700E02027880404D505E0384646
:103E60000399B0476D1C641EF9D5284605B0F0BD16
:103E70000A68531C0B6010707047000070B5084D45
:103E800004462968002048622846FDF7C1FF2868DB
:103E9000416AA142FCD30248FEF706F870BD00005B
:103EA00040020020F8B500F045FF00F081FE044616
:103EB00000F07EFE074600F07BFE064600F078FE2E
:103EC000054600F075FEE11989194919C9B2814208
:103ED0000CD13C2C03D906210548FCF7B4FF33462E
:103EE0003A46214603A00095FFF724FDF8BD0000E7
:103EF000000400506F6B2C2068756D693D202564AF
:103F00002E25642C20202074656D703D25642E259F
:103F1000640D0A00FFB581B0120100920A460F320B
:103F200093B2C21D92B2FEF71BFD2C2000F0B6FE2C
:103F300000250126009841190A480024475C072003
:103F4000011B30468840384201D00A9800E00498AE
:103F500000F054FE641C082CF1DB6D1C102DE9DB15
:103F600005B0F0BDA05A000838B504466846047094
:103F7000034B012269460348FEF750FC204638BD3A
:103F8000FFFF00008C0200207D21C900884201D281
:103F900065207047E121C900884201D26620704740
:103FA0000549884201D2642070470449884201D201
:103FB0006820704767207047FC0800008C0A0000EA
:103FC000EFF30580002800D001207047FFB50746B9
:103FD00081B016461046FCF701F9054600240CE0B6
:103FE000E000C0197F280ADC0A990091325D80B296
:103FF000049B0299FFF78EFF641CAC42F0DB05B016
:10400000F0BD000010B5012240210F48FCF723FF4E
:10401000012000F043FE7820FCF730FE112000F074
:104020003DFE7820FCF72AFE362000F037FEC8203F
:1040300000F012FE3A2000F031FE052000F00CFEE8
:10404000292000F02BFE10BD0004005038B51C4C98
:104050001CA1204627302268FFF77CFC204619A1CE
:1040600038306268FFF776FC204616A14930626856
:10407000FFF770FC154D2846FEF75DFC104A002442
:104080002B460C321E2105200094FFF79FFF0C4A9F
:104090002B461D32322105200094FFF797FF084A76
:1040A0002B462E32462105200094FFF78FFF044A4D
:1040B0002B463F325A2105200094FFF787FF38BD79
:1040C000000000202530346400000000FFFF0000E5
:1040D00070B590B0242107A8FCF775F8012201A95A
:1040E0001748FDF755FB012206A91548FDF72EFBE1
:1040F0006846807E00906846437EC27E11A107A874
:10410000FFF728FC68468079009068464379027979
:104110002D300CA10546FFF71DFC0E4E00241E217C
:10412000334607AA08460094FFF750FF33462A4655
:1041300050211E200094FFF749FF10B070BD000011
:1041400064010020253032782D253032782D25303D
:1041500032780000FFFF0000FCF792FEFEF7F4FF4C
:10416000FEF79AFCFEF724FCFEF7F0FCFEF734FDA8
:10417000FEF7B0FDFEF7E2FDFEF76EFDFEF752FD25
:10418000FFF740FF0748FEF7D6FBFEF785FCFEF77A
:1041900063FD08210448FEF755F8FEF73DFC00F0EA
:1041A000CFF8FEE7FFFF0000F401002001460020E9
:1041B000842900D0C81C7047F0B587B0FFF746FFD0
:1041C0000027544A1F2301243221DB0205200097D7
:1041D0000192FFF7FBFE4F4D113D28461B30069024
:1041E000113005900A3804901B3003900A38029071
:1041F000FF260136052031460007FCF71FFE012887
:10420000F6D10A20FCF73AFD052031460007FCF7FD
:1042100015FE0128ECD14048FCF764FC3F493E48BC
:10422000FCF7FEFB3C48FCF7B9FA3D4E30603A48DB
:10423000FCF78CFC3068FFF7A7FE3A4E306064381C
:104240000300FFF79BFB050409182D5F6200641E45
:10425000012C05DA641C03E0641C032C00DD641EE1
:10426000FFF7F4FE200120184219142060431E308D
:1042700081B2009740E0012C08D0022C0BD0032C17
:10428000B6D124481D3882680A3A13E021481D3807
:1042900002680A3A1BE01F481D3842680A3A23E0C8
:1042A000012C10D0022C1BD0032CA1D119481D3891
:1042B00082680A3282601CA10398FFF74BFB0097CB
:1042C0005A21029A18E013481D3802680A32026027
:1042D00015A10698FFF73EFB00973221019A0BE0EB
:1042E0000C481D3842680A3242600FA10598FFF75A
:1042F00031FB049A009746211F23DB020520FFF7BC
:1043000065FE02E00548FEF716FB30686828B7D165
:1043100007B0F0BD1D00002000010020FFFF0000DD
:10432000580000205C0000202530346400000000AC
:1043300010B5002800D1012000F0FCFD002010BDC8
:1043400010B500F07FFE002010BD10B5012901D08E
:10435000002010BD03220021012000F0E9FE04002E
:1043600004D000231A46194600F033FF204610BD42
:1043700038B5054600200090002D11D00024481CBF
:1043800010D0002900D00C46FFF71AFE002814D0E8
:104390006A460021284601F070F8012813D104E094
:1043A000802038BD0024E443EEE7009800280CD0BC
:1043B000012007490007486007E02146284601F030
:1043C00098F8012801D0FF2038BD002038BD00003A
:1043D00000ED00E03EB5044608200D46205EFFF7E4
:1043E000E5FE02A901910090208A2B4682B2216845
:1043F000606801F04DF9012801D000203EBD02980F
:104400003EBD000008B500680090012907D00020DB
:1044100013460246012103A001F0CEFA08BD012097
:10442000F6E7000000000000F8B5134C0F46E66800
:1044300005462068001D00F0A5FC681C07D1002F70
:1044400005D021680D48091D00F0D5FCF8BD206895
:10445000751945602168B54204D2A06B091D00F0B2
:10446000B2FCF8BD606B091D00F0ADFCA06A85428E
:10447000F7D2A562F8BD0000880000201C050020CE
:10448000F8B5054600F0C4FC294CA068401CA060AB
:104490002068284F002803D06069002827D02CE02E
:1044A0002560A068012828D1002614207043C01977
:1044B00000F07BFC761C072EF7D31E488C3000F0F2
:1044C00074FC1C48A03000F070FC1A48B43000F0B6
:1044D0006CFC1848C83000F068FC1648DC3000F06E
:1044E00064FC14488C3060631430A06305E02068DD
:1044F000E96AC06A884200D82560606A401C606230
:10450000E86A2169884200D9206114214843C01912
:10451000291D00F070FC00F087FC6069002806D0BF
:104520002068E96AC06A884201D200F0C3FCF8BD85
:10453000880000204004002010B500F069FC0E4CFB
:104540002068002815D10D4800F02FFC0B481430CE
:1045500000F02BFC0948E0601430206100220C219F
:104560000A2000F0E5FD2060002802D004A100F040
:10457000ADFC00F059FC10BDC40000203005002047
:10458000546D72510000000010B5026C0C46002AF8
:104590000CD0C1688B18C36081688B4201D2194668
:1045A00001E00168C1602046FBF7F4FD10BDF8B5DD
:1045B000856B174604460026026C002A11D0002F96
:1045C00019D0E068FBF7E6FDE168206C091AE160AC
:1045D0002268914202D2A168081AE060022F17D027
:1045E00019E02068002816D1A06801F0EDF8064611
:1045F0000020A0600FE06068FBF7CCFD216C6068D4
:1046000040186060A168884205D32068606002E0BD
:10461000002D00D06D1E6D1CA5633046F8BD10B591
:104620000446006B00F00EFC204600F00BFC10BDB1
:1046300001210E480903420705D0C01DC0080B4ADE
:10464000C000821A891A0A4A0023411809C208398F
:10465000C908C900203A11604B600B600B1A0AC0F0
:1046600093600120C00753605061704758050020D7
:10467000F00000200F4E104C3746C83F11E000F00C
:10468000C7FBF068C568281D00F07CFBA068401ED1
:10469000A0606068401E606000F0C6FB2846FFF71F
:1046A000BEFF60680028EAD138680128F9D900F017
:1046B00001FCF6E70805002088000020FFB581B066
:1046C0000C9C9000236B001F1818C7080A9DFF0060
:1046D000780701D072B6FEE72646403600290DD095
:1046E000002023180A5C20331A750A5C002A02D0C5
:1046F000401C1028F5D30020F07002E00020342187
:104700000855072D00D30625E56200206564A064E6
:10471000201D00F055FB2046183000F051FB2461AD
:104720000720401B6462A0610020E06430743846BA
:10473000049A019900F02CFA20600B98002800D010
:10474000046005B0F0BD000030B5114900E011462D
:104750000A688242FBD34B685C18844203D14068EC
:1047600018184860084643681C18944209D1084C40
:10477000183C2468A24209D052689A1842600A681C
:1047800012680260814200D0086030BD0460F9E721
:10479000F000002070B5002441600B4D0061914293
:1047A00006D8D11A8269914206D2011D286907E014
:1047B0009A4203D2994201D3012403E0011DE86823
:1047C00000F001FB204670BDC400002010B5044677
:1047D00000F01EFBA06B002804D0002400F024FB96
:1047E000204610BD0124F9E7F0B585B00125344E0F
:1047F0005CE00198002859DB039C6069002802D026
:10480000201D00F0BFFA04A800F0C0F8024601988D
:104810000300FFF7B3F80A060606282E3F0606280F
:104820002E4B274620373879284338710298A169E2
:10483000034641182046FFF7ADFF002836D0216A15
:10484000204688473879400730D5002000900298EC
:10485000A169002342181946204601F0F9F8002802
:1048600024D172B6FEE72034207940084000207140
:104870001CE0204620300179294301710298A06193
:10488000002805D0811813462046FFF783FF0DE06E
:1048900072B6FEE72046203001798A0703D420460D
:1048A00000F0D0FA02E0490849000171002201A994
:1048B000306800F061FD00289BD105B0F0BD00001C
:1048C000C4000020FEB50E46044600F0E5FB01A83A
:1048D00000F05CF805460198002802D001F016F8B7
:1048E000FEBD214F002E10D038690068002838D056
:1048F0000026611B3246386800F0FAFA01F006F82B
:104900000028EDD100F0D6FAFEBDAC42F1D800F09F
:10491000FDFFF8682E46C068C568281D00F032FA11
:10492000294620310879420714D5A8692346011980
:1049300032462846FFF72EFF00280ED000200346FF
:10494000014600902246284601F082F8002804D152
:1049500072B6FEE7400840000871296A2846884779
:10496000FEBD0126C5E70000C40000200648416BDB
:104970000968002905D0416BC968C9684968816226
:1049800070470021C943FAE78800002070B505464A
:1049900000F0B6FE064E0446B068844203D200F032
:1049A00009F8012000E0002028602046B46070BDB6
:1049B000C4000020F8B5174D21E0C068C46806683F
:1049C000201D00F0DFF9216A204688472420005D81
:1049D000400714D5A0698019B04206D924616060EF
:1049E000211DE86800F0EFF909E0002003460146C8
:1049F00000903246204601F02BF8002807D0E868E6
:104A000001680029D9D12969E9602861F8BD72B629
:104A1000FEE70000C400002003480068401C72B696
:104A200000D0FEE7FEE70000F8000020074CE06839
:104A30000168002907D0C06800210068FFF742FF25
:104A4000FFF7D2FEF3E701210020F7E7C4000020C2
:104A5000F8B5044600F0DCF9254640350526AE578A
:104A6000274624370BE0606A00280AD0384600F059
:104A70001BFF002801D000F07DFA761E76B2002ED2
:104A8000F1DC0027FF436F7100F0CEF900F0C0F9B0
:104A90000426AE572046103000900BE02069002815
:104AA0000AD0009800F000FF002801D000F062FA60
:104AB000761E76B2002EF1DC2F7100F0B5F9F8BD4C
:104AC000F8B50546002700F0E7FA2A4E30680028BE
:104AD00001D1FFF7ADFD7069054242D1002D40D0F4
:104AE0000835680708D06807400F0821081A4519DB
:104AF000680701D072B6FEE7002D32D0706885429B
:104B00002FD81C48183001460C6801E020460C469E
:104B10006168A94202D221680029F7D131688C422C
:104B20001FD007682168016060680837411B1029A1
:104B300008D96019420701D072B6FEE7416065608E
:104B4000FFF702FE61687068401A7060B2689042B8
:104B500000D2B06070690143002003C4F068401CBB
:104B6000F06000F0D3FE780701D072B6FEE7384659
:104B7000F8BD0000D800002004490868002803D0D0
:104B80000868826C521C82640868704788000020A4
:104B900010B50124031F24061C601B1F1960191F78
:104BA000024B0B60143940380A6010BD194A0008E6
:104BB000F8B50024FF27104E254601373946304608
:104BC000FCF73CF90128F9D039463046FCF736F9B4
:104BD0000028F9D02820FFF751F96006040E394665
:104BE0003046FCF72BF9012800D104436D1C082D39
:104BF000E4DB2046F8BD000000040050F8B50125B4
:104C000005260446ED033607002229463046FCF708
:104C100022F9012210210D48FCF71DF9210A6846EE
:104C200001700B4F01223B4669460A48FCF7D0FF52
:104C3000684604703B46012269460648FCF7C8FFF7
:104C4000012229463046FCF706F9F8BD0004005061
:104C5000FFFF00009001002031B501240525E40389
:104C60002D07002221462846FCF7F5F801221021E5
:104C70000748FCF7F0F8074B012269460648FCF7A5
:104C8000A7FF012221462846FCF7E5F838BD0000C1
:104C900000040050FFFF00009001002031B5012406
:104CA0000525E4032D07002221462846FCF7D3F80A
:104CB000002210210748FCF7CEF8074B0122694675
:104CC0000648FCF785FF012221462846FCF7C3F879
:104CD00038BD000000040050FFFF000090010020DC
:104CE00000B585B014216846FBF76DFAFF2001304E
:104CF000009000200190029069460248FBF7F0FF07
:104D000005B000BD0004005000B585B01421684610
:104D1000FBF759FAFF20013000900120019000209C
:104D20000290039069460248FBF7DAFF05B000BD28
:104D30000004005070B5FFF7E7FFFF24104D013469
:104D4000002221462846FCF786F81420FBF796FF40
:104D5000012221462846FCF77EF81E20FFF78EF838
:104D6000FFF7BEFF21462846FCF768F80128F9D076
:104D700021462846FCF762F80028F9D0012070BDD2
:104D8000000400504368826801699A608368426841
:104D90005A604A68824201D182684A6000220261F8
:104DA0000868401E08600868704701460831002204
:104DB0004160D243C160826001610021016070479F
:104DC00000210161704730B50B685A1C02D00246C1
:104DD000083202E0026904E02246546825689D42D8
:104DE000FAD953684B6099608A6051600861016824
:104DF000491C016030BD42684A6093688B609368CB
:104E00005960916008610168491C016070470000A9
:104E100072B604480168491C0160BFF34F8FBFF3AD
:104E20006F8F7047F800002005490868002804D0FB
:104E3000401E086000D162B6704772B6FEE70000FF
:104E4000F800002070B500281DD004460E4D083C27
:104E500060686969084201D172B6FEE72268002ADB
:104E600001D072B6FEE78843606000F015F9606813
:104E70006968401868602046FFF766FC2869401C96
:104E8000286100F043FD70BDD800002010B5074C2C
:104E900000202061A06106487D21C9000068FBF761
:104EA00063F9401E60610720206110BD00E000E052
:104EB000840000200120044900074860BFF34F8FA1
:104EC000BFF36F8F7047000000ED00E010B5074B97
:104ED0000022D4001C59002C03D0521C082AF8D3FD
:104EE00010BDD2009950D118486010BD00040020B8
:104EF00070B515460E460446FFF78AFF204640303F
:104F0000042282560021521C00D1017105228256D2
:104F1000521C00D14171FFF787FFA06B002805D11B
:104F200020462A463146243000F03CF82046FFF760
:104F30008FFD70BD10B502000FD00948006B00282E
:104F400001D072B6FEE700F0A7F800211046FFF787
:104F50006BFA00F0DBFC002801D1FFF7ABFF10BDBE
:104F60008800002002490A6A0260C96841607047EF
:104F70008800002001490120C86170478800002096
:104F800010B50C46002809D0054909681831FFF70B
:104F90001AFF01212046FFF747FA10BD72B6FEE75F
:104FA0008800002070B514460D4600280DD0084931
:104FB00009681831FFF71FFF002C01D00025ED43D1
:104FC00021462846FFF730FA70BD72B6FEE70000B2
:104FD0008800002070B504002FD0A26C002A0ED0EB
:104FE000606C884200D30146E06A884225D0012ADD
:104FF00023D1124D2A68944203D172B6FEE772B6ED
:10500000FEE7E162A269002A02DB0722511AA161D0
:1050100014220B4E50436169801981420DD1201D2D
:10502000FFF7B0FEE06A2969884200D9286114219F
:1050300048438019211DFFF7DEFE70BD8800002067
:10504000400400201CB5104800240190234678221B
:105050000EA100940F4800F01BFB012803D100F0C3
:10506000D7FC012803D0401C0CD172B6FEE772B603
:1050700000210548C9432C38816201214161C46087
:1050800000F03EF81CBD0000B400002049444C452F
:1050900000000000754600080248016B491C0163CE
:1050A000704700008800002010B51348016B0029EC
:1050B00002D00121C16110BD0021C16101690F4A07
:1050C00002E0002915D0491E14234B43D358002B6E
:1050D000F7D014234B439A18536814465B6808347E
:1050E0005360A34201D15B685360DA6802600161DA
:1050F00010BD72B6FEE700008800002040040020CA
:1051000010B50948016AFF22120411430162016AC5
:10511000120211430162FFF7B9FE04490020086042
:10512000FAF7D8FF002010BD00ED00E0F8000020E5
:1051300070B50E46050012D070434830FFF7C0FC32
:1051400004000AD0214648312046002E09D00160D3
:1051500006640121C56300F006F8204670BD72B6F2
:10516000FEE70060F4E770B50D46040025D0FFF7B8
:105170004FFE216CE06B484321684118A16000217B
:10518000A16321686160E06B216C401E4843216887
:105190004118E1600021C94320464030017141714E
:1051A0003038002D0BD0FFF700FE20462430FFF7EB
:1051B000FCFDFFF739FE012070BD72B6FEE72169E4
:1051C0000029F6D000F070FB0028F2D0FFF772FE45
:1051D000EFE7FFB5002683B01D46040003D0049816
:1051E000002802D006E072B6FEE7206C002801D04D
:1051F00072B6FEE7022D04D1E06B012801D072B631
:10520000FEE700F06DFA0027002804D10598002879
:1052100001D072B6FEE7FFF7FBFDA06BE16B8842A1
:1052200007D3022D05D00598002817D0002E18D0DE
:105230001BE02A4620460499FFF7B9F9616A002964
:1052400003D02046243000F02FFB002801D0FFF7C8
:1052500031FEFFF7E9FD012007B0F0BDFFF7E4FDE7
:1052600022E06846FFF77EFE0126FFF7DDFDFFF72F
:1052700013FFFFF7CDFD2046403004214156491C65
:1052800000D1077105214156491C00D14771FFF734
:10529000CBFD05A9684600F0CDF9002806D02046D0
:1052A000FFF7D6FB00F032FB0020D5E7FFF7B0FD9B
:1052B000A06BE16B884210D1FFF7B6FD204610309D
:1052C0000599FFF75DFE2046FFF7C2FB00F01EFBCD
:1052D0000028A0D1FFF7EEFD9DE7FFF7A5FD2046D2
:1052E000FFF7B6FB00F012FB95E7FFB581B01E4655
:1052F000040003D00298002802D006E072B6FEE750
:10530000206C002801D072B6FEE7022E04D1E06BBB
:10531000012801D072B6FEE7FAF7F0FE0090A06B0C
:10532000E16B884208D3022E06D000240098FAF7D9
:10533000E9FE204605B0F0BD204640300525455722
:105340000746A06B324620460299FFF730F9681CE9
:1053500003D06D1C7D710124E8E7606A0028FAD053
:105360002046243000F0A0FA0028F4D0039800284A
:10537000F1D001210160EEE7F7B5002582B004000D
:1053800003D00398002802D006E072B6FEE7206C36
:10539000002801D072B6FEE700F0A2F9002600282E
:1053A00004D10498002801D072B6FEE7FFF730FD63
:1053B000A76B002F15D020460399FFF7E5F87F1E55
:1053C000A7632069002807D02046103000F06CFA4F
:1053D000002801D0FFF76EFDFFF726FD012005B084
:1053E000F0BD0498002802D0002D03D006E0FFF79E
:1053F0001BFD27E06846FFF7B5FD0125FFF714FD0B
:10540000FFF74AFEFFF704FD2046403004214156D5
:10541000491C00D1067105214156491C00D1467135
:10542000FFF702FD04A9684600F004F900282046B1
:105430000AD0FFF70DFB00F069FA2046FFF7C6F926
:105440000028B3D00020CAE7FFF7C0F900280ED02B
:10545000204624300499FFF793FD2046FFF7F8FA21
:1054600000F054FA0028A1D1FFF724FD9EE7204662
:10547000FFF7EEFA00F04AFA98E7F7B582B00400B9
:1054800003D00398002802D006E072B6FEE7206C35
:10549000002801D072B6FEE7FAF730FE0090A66B46
:1054A000002E1FD020464030042545570746204691
:1054B0000399FFF769F8761EA663681C03D06D1C7C
:1054C0003D7101240FE020690028FAD020461030F9
:1054D00000F0EAF90028F4D004980028F1D0012166
:1054E0000160EEE700240098FAF70CFE204605B0B4
:1054F000F0BDF3B5002683B0041E354604D0206C01
:10550000002803D072B6FEE772B6FEE700F0E8F8B6
:105510000027002804D10498002801D072B6FEE7C5
:10552000FFF776FCA06B002817D0401EA063206810
:10553000002802D1FFF720FBA0602069002807D0D7
:105540002046103000F0B0F9002801D0FFF7B2FC7F
:10555000FFF76AFC012005B0F0BD0498002802D0D6
:10556000002E07D00AE0002D01D072B6FEE7FFF74B
:105570005BFC5CE06846FFF7F5FC0126FFF754FC96
:10558000FFF78AFDFFF744FC2046403004214156D6
:10559000491C00D1077105214156491C00D14771B2
:1055A000FFF742FC04A9684600F044F800282046B2
:1055B00014D0FFF74DFA00F0A9F92046FFF706F9DD
:1055C0000028ADD0002D32D0FFF722FC606A002801
:1055D00028D0206B07210068091A24E0FFF7F6F8AD
:1055E000002819D02068002807D1FFF711FCA06817
:1055F00000F01EF90546FFF717FC204624300499F9
:10560000FFF7BEFC2046FFF723FA00F07FF90028E1
:1056100086D1FFF74FFC83E72046FFF719FA00F029
:1056200075F97DE70021A068FFF7D4FC9FE7002013
:1056300091E70000F8B50C46050012D0002C12D0FE
:10564000FFF7E6FB114BDA686E682068911B471C78
:105650000BD02F681B6A9F420CD096420AD80124B7
:1056600004E072B6FEE772B6FEE70024FFF7DCFB4B
:105670002046F8BD884205D9401A20602846FFF729
:1056800071FCF2E700202060E9E7000088000020BC
:10569000FFB585B0164690000F9FFFF711FA050081
:1056A0001AD05420FFF70CFA040012D02563002111
:1056B0000E9803910197009002943246089B069938
:1056C0000598FEF7FBFF2046FEF7DAFE012009B041
:1056D000F0BD2846FFF7B6FB0020C043F7E7000007
:1056E00006484169002904D0006B002803D000203F
:1056F000704701207047022070470000880000209A
:105700000148C0687047000088000020F8B52C4CA4
:105710000027206B002804D0A069401CA0613846F7
:10572000F8BDE668761CE6600ED1606B0068002864
:1057300001D072B6FEE7606BA16B6163A063206A63
:10574000401C2062FFF712F9A06A86420AD3606B00
:105750000068002814D0606BC068C568686886421D
:1057600011D2A06220681421C06A48431549085824
:10577000012800D90127E0690028D0D00127CEE711
:105780000020C043EDE7281DFFF7FCFAA86A0028B7
:1057900003D028461830FFF7F5FAE86A21698842F5
:1057A00000D920611421484306494018291DFFF7FC
:1057B00022FBE86A2168C96A8842C8D30127C6E784
:1057C000880000204004002070B500210446002815
:1057D00028D0154D2868844201D072B6FEE7A06C2F
:1057E000002808D0401EA064636CE26A9A4219D077
:1057F000002802D016E072B6FEE7201DFFF7C2FABD
:10580000606C0721E062081AA061E06A2969884299
:1058100000D928611421484304494018211DFFF78D
:10582000EAFA0121084670BD8800002040040020EB
:1058300070B504460020002C2AD0194DE16A2A6870
:10584000D26A914225D2A069002804DB286807218A
:10585000C06A081AA061E06A1422124E50436169BE
:105860008019814210D1201DFFF78CFA2868C06A88
:10587000E0622969884200D92861142148438019CF
:10588000211DFFF7B8FA02E02868C06AE062012033
:1058900070BD616C2A68D26A9142F8D370BD000075
:1058A000880000204004002070B5C068C468002C47
:1058B0000BD0204618300646FFF764FA114D286BCE
:1058C000002804D0314610480FE072B6FEE7201DD4
:1058D000FFF758FAE06A2969884200D92861142143
:1058E00048430949B4394018211DFFF784FAE06A9A
:1058F0002968C96A884202D90120E86170BD002088
:1059000070BD000088000020F4040020F8B5284C89
:105910000025206B2E46002808D0FFF779FA206B6F
:10592000401E2063206B002802D03DE072B6FEE7E7
:10593000A168204F00291DD136E0F868C5682846C7
:105940001830FFF71FFA281DFFF71CFAE86A2169D3
:10595000884200D92061142148431649B4394018BF
:10596000291DFFF748FAE86A2168C96A884201D30D
:105970000120E06138680028DFD1002D01D0FEF75A
:10598000F5FFA569002D09D00127FFF7BFFE00280C
:1059900000D0E7616D1EF8D10020A061E069002809
:1059A00002D00126FFF786FAFFF73EFA3046F8BD2F
:1059B00088000020F4040020FFB5074683B00E469F
:1059C0002820FFF77DF804001DD025460020203553
:1059D0002871059802970190069F0C980090002E60
:1059E00014D0FEF7A9FD0298E761A6612060009837
:1059F0002062201DFFF7E4F90198002803D02879E0
:105A0000042108432871204607B0F0BD72B6FEE7B6
:105A10001CB5FEF791FD0A48006800280CD0084923
:105A20000220091D019100900023F02205A10748E2
:105A3000FFF72EFE002801D172B6FEE71CBD000064
:105A4000C4000020546D7220537663002D4A000874
:105A5000FEB51D4603460020089E002B12D00F4CB9
:105A60002768002F0DD068460EC006290FDAFFF711
:105A700037FE022808D000231A4669462068FFF73F
:105A8000A8FBFEBD72B6FEE700233246F5E7002311
:105A90002A4669463846FFF728FCFEBDC4000020B0
:105AA00000000000000000000000000000000000F6
:105AB00000000000000000000000000000000000E6
:105AC00000000000000000000000000000000000D6
:105AD00000000000000000000000000000000000C6
